:020000040000FA
:10000000E82000206D020000810200008302000051
:10001000850200008502000085020000000000004B
:100020000000000000000000000000008502000049
:10003000850200000000000085020000850200002B
:100040008502000085020000850200008502000094
:100050008502000085020000850200008502000084
:100060008502000085020000850200008502000074
:100070008502000085020000850200008502000064
:100080008502000085020000850200008502000054
:100090008502000085020000850200008502000044
:1000A0008502000085020000850200008502000034
:1000B0008502000085020000850200008502000024
:1000C0008502000085020000850200008502000014
:1000D0008502000085020000850200008502000004
:1000E0008502000000000000000000008502000002
:1000F00085020000850200008502000085020000E4
:1001000085020000850200008502000085020000D3
:1001100000000000000000008502000085020000D1
:1001200085020000850200008502000085020000B3
:1001300085020000850200008502000085020000A3
:1001400000000000000000000000000000000000AF
:100150008502000085020000850200008502000083
:10016000000000000000000000000000000000008F
:10017000000000000000000000000000000000007F
:10018000000000000000000000000000000000006F
:10019000000000000000000000000000000000005F
:1001A000000000000000000000000000000000004F
:1001B0008502000085020000850200008502000023
:1001C0008502000085020000850200008502000013
:1001D0008502000085020000850200008502000003
:1001E00085020000850200008502000085020000F3
:1001F00085020000850200008502000085020000E3
:100200008502000085020000850200000000000059
:1002100085020000850200008502000085020000C2
:1002200085020000850200008502000085020000B2
:1002300085020000850200008502000085020000A2
:100240008502000085020000850200008502000092
:100250008502000085020000850200008502000082
:100260008502000085020000850200004EF68850DD
:10027000CEF20000016841F47001016000F004B8A2
:10028000FEE7FEE7FEE7000000F002F800F04CF8A1
:100290000AA090E8000C82448344AAF10107DA45E1
:1002A00001D100F041F8AFF2090EBAE80F0013F0E7
:1002B000010F18BFFB1A43F001031847502B000031
:1002C000702B00000A4410F8014B14F00F0508BF12
:1002D00010F8015B240908BF10F8014B6D1E05D012
:1002E00010F8013B6D1E01F8013BF9D1641E03D0EB
:1002F000641E01F8015BFBD19142E4D3704700001A
:100300000023002400250026103A28BF78C1FBD81E
:10031000520728BF30C148BF0B6070471FB502F0BD
:100320006CFA1FBD10B510BD02F02DFA1146FFF793
:10033000F5FF00F021F802F04BFA03B4FFF7F2FFEB
:1003400003BC02F053FA0000EFF3108072B670475E
:10035000EFF310807047EFF3108062B6704730BF44
:10036000704780F311887047EFF3118070470000E9
:100370000138FDD1704700000024124801F084FCD0
:1003800000F04FF900F00AF91AE001210E4801F0DF
:10039000C1FFFE210C4801F0BDFF002405E00B4821
:1003A000015D094801F0B6FF641CB4F5167FF6DB69
:1003B000FE21054801F0AEFF0121034801F0AAFF2C
:1003C000E3E700004005C00100C000406C060020CB
:1003D00008B54FF41670764B764A01210090042040
:1003E00002F0D6F8042002F036F80421724800F03A
:1003F000DAFC08BD10B5042002F087F910BD08B57D
:100400006E4801F08FF96E486E490860081D00685B
:1004100040F00100091D08600020091F0860FF214D
:10042000694800F08CFD6548C01C01F07BF9644808
:1004300066490860081D006840F00100091D086059
:100440000020091F086004215B4800F078FD0422A9
:100450001146594800F024FB0A2301220421564882
:1004600000F07BFB0421544800F089FCAFF29F01AF
:10047000514800F09BFC5148401E01F053F9504890
:1004800053490860081D006840F00100091D08601C
:100490000020091F086040214FF0402000F04FFD70
:1004A000002240214FF0402000F0FAFA0A230122F6
:1004B00040214FF0402000F050FB40214FF0402001
:1004C00000F074FEAFF2D301042002F007F94148B6
:1004D00001F028F901F0B0FF3F4802F019F93E2081
:1004E00000F0EEFE3D4801F0D1FF0F21042001F0A5
:1004F000FCFF4FF04061042002F03BF84FF416700F
:100500002B4B2C4A02210090042002F041F80420D9
:1005100001F0A1FF08BD002107E0002201E0531C0B
:100520009AB28242FBDB4B1C99B28142F5DB7047E9
:1005300038B500240020009000F0B4F8802112208B
:1005400000F0F7F908B9002038BD4FF44870FFF704
:10055000E2FF0B220121684600F03BFA08B90020B7
:10056000F2E79DF80000212814D100240DE01C4A78
:1005700002EB440251781A4A12F8140000F0D9F93B
:1005800008B90020E0E7601C84B216480078844275
:10059000EDDB01E00020D7E70120D5E710B500BF73
:1005A000FFF7C6FF0028FBD0FFF729FF10BD0000B2
:1005B0006C060020FC53004000400240010800F09F
:1005C0004B434F4C20550040005000402045024016
:1005D00020450040000C00F004000300841B0020B4
:1005E000000000206200002070B50121244801F0C5
:1005F000CCFE04462146224801F0CDFE04F0100056
:1006000070B108E01E4801F072FEC5B229461C48D0
:1006100001F080FE00BF1A4801F053FE0028F1D11E
:1006200070BD10B5174801F07DF8174801F07AF851
:10063000012000F098FD40F2014000F094FD0321FC
:100640004FF0402000F03EFD01F0C9FB044660235E
:100650004FF4E13221460A4801F0A0FD084801F0BC
:10066000DEFD152000F02CFE1021054801F085FE6E
:10067000AFF28B01024801F064FE00F0B5FD10BD41
:1006800000C00040001800F0000800F001B504E0D0
:10069000BDF80000401E80B20090BDF800000028A8
:1006A000F6D108BD10B5D64801F03CF80321D54875
:1006B00000F054FC01221146D24800F0C3FB022294
:1006C0001146D04800F0BEFB10BD10B50220CD4948
:1006D0008860012048604FF4C870FFF7D7FF0221FF
:1006E000C84800F02CFC0221C64800F0A5FB28B940
:1006F0000221C44800F032FC002010BD0221C14894
:1007000000F02CFC6FF00200BE4988604FF4C87006
:10071000FFF7BCFF6FF00100BA4948600221B948F9
:1007200000F08AFB28B10221B64800F017FC002037
:10073000E3E70120E1E710B56FF00100B14948603F
:100740006FF0020088604FF4C870FFF79FFF012030
:10075000AC4948604FF4C870FFF798FF0220A949E0
:1007600088604FF4C870FFF791FF10BD10B56FF0AF
:100770000100A44948604FF4C870FFF787FF6FF08D
:100780000200A04988604FF4C870FFF77FFF012086
:100790009C4948604FF4C870FFF778FF6FF0010084
:1007A000984948604FF4C870FFF770FF10BD10B54E
:1007B0006FF00100934948604FF4C870FFF766FF7F
:1007C0000220904988604FF4C870FFF75FFF012056
:1007D0008C4948604FF4C870FFF758FF6FF0010074
:1007E000884948604FF4C870FFF750FF10BD10B53E
:1007F0006FF00100834948600221824800F09FFBAE
:100800004FF4C870FFF742FF01207E4948604FF463
:10081000C870FFF73BFF02217A4800F00DFB48B19A
:100820000221784800F09AFB6FF00100754948609A
:10083000002010BD0221734800F090FB6FF0010012
:10084000704948600120F4E770B5044608251BE0B4
:1008500004F0800018B102206A49886003E06FF05C
:100860000200684988606006040E4FF4C870FFF704
:100870000DFF0120634948604FF4C870FFF706FF81
:100880006FF001005F494860281EA5F10101CDB25B
:10089000DED170BD70B5082500240221594800F052
:1008A0004EFB17E06006040E6FF0010055494860EA
:1008B0004FF4C870FFF7EAFE0120524948604FF438
:1008C000C870FFF7E3FE02214E4800F0B5FA08B108
:1008D00044F00104281EA5F10101CDB2E2D10221AC
:1008E000484800F03BFB6FF0010046494860204655
:1008F00070BD70B504460D46FFF7E7FE08B900204D
:1009000070BD4220FFF7A0FFFFF771FF18B9FFF796
:1009100012FF0020F4E7E0B2FFF796FFFFF767FF52
:100920002846FFF791FFFFF762FFFFF704FF012062
:10093000E6E770B505460E46002405E0601CC4B22B
:10094000142C01D1002070BD31462846FFF7D1FF9D
:100950000028F3D00120F6E770B505460C46164690
:10096000FFF7B3FE08B9002070BD4220FFF76CFF0F
:10097000FFF73DFF18B9FFF7DEFE0020F4E7304631
:10098000FFF762FFFFF733FFFFF7D5FEFFF79DFE8E
:1009900008B90020E8E74320FFF756FFFFF727FFDD
:1009A00018B9FFF7C8FE0020DEE70CE0FFF772FF82
:1009B0002870012C02D1FFF7FAFE01E0FFF7D6FE06
:1009C0006D1C601E84B2002CF0D1FFF7B4FE012034
:1009D000CAE72DE9F04105460E461746002406E019
:1009E000601CC4B21E2C02D10020BDE8F0813A4642
:1009F00031462846FFF7B0FF0028F1D00120F4E788
:100A0000040800F00040024030B50246FE4B1824B6
:100A1000FE480068FE4D2840FE4DA84201D1FE4B25
:100A20001B24002108E053F83100904203D103EB6E
:100A3000C100406830BD491CA142F4D30020F9E751
:100A400002F001031BB1D0F800340B4302E0D0F8F0
:100A500000348B43C0F8003402F002031BB1D0F81D
:100A600020340B4302E0D0F820348B43C0F820340C
:100A7000704730B5024601208840C1B2D2F8003438
:100A8000D2F8204403EA010008B1012000E0002070
:100A900004EA01050DB1022500E00025284330BD20
:100AA00002F001031BB1D0F808340B4302E0D0F888
:100AB00008348B43C0F8083402F002031BB1D0F8AD
:100AC00004340B4302E0D0F804348B43C0F8043400
:100AD00002F004031BB1D0F80C340B4302E0D0F851
:100AE0000C348B43C0F80C3402F4803323B1D0F8BB
:100AF000383543F0010303E0D0F8383523F0010323
:100B0000C0F838357047F0B5024601208840C1B2C0
:100B1000D2F80834D2F80444D2F80C64D2F838552C
:100B200003EA010008B1012000E0002004EA010707
:100B30000FB1022700E00027384306EA01070FB192
:100B4000042700E00027384305F00107384310B1BF
:100B50004FF48030F0BD0020FCE7F0B5002416E033
:100B60000125A5400D4085B1D0F8C45F670003267C
:100B7000BE40B543C0F8C45FD0F8C45F6700C2F39D
:100B80004116BE403543C0F8C45F651CECB2082C6A
:100B9000E6DB02F001051DB1D0F800550D4302E07F
:100BA000D0F800558D43C0F8005502F002051DB184
:100BB000D0F804550D4302E0D0F804558D43C0F839
:100BC000045502F004051DB1D0F808550D4302E0AC
:100BD000D0F808558D43C0F8085502F008051DB13E
:100BE000D0F818550D4302E0D0F818558D43C0F8E1
:100BF000185502F010051DB1D0F83C550D4302E028
:100C0000D0F83C558D43C0F83C5503F001051DB1AB
:100C1000D0F80C550D4302E0D0F80C558D43C0F8C8
:100C20000C5503F002051DB1D0F810550D4302E03C
:100C3000D0F810558D43C0F8105503F004051DB1D0
:100C4000D0F814550D4302E0D0F814558D43C0F888
:100C5000145503F008051DB1D0F81C550D4302E0F2
:100C6000D0F81C558D43C0F81C5503F400751DB118
:100C7000D0F844550D4302E0D0F844558D43C0F8F8
:100C8000445503F440751DB1D0F840550D4302E0C2
:100C9000D0F840558D43C0F840551BB9D0F82855C1
:100CA0000D4302E0D0F828558D43C0F82855F0BD1B
:100CB000F0B514461D4601268E40F1B2D0F800650D
:100CC0000E400EB1012600E000263246D0F8046541
:100CD0000E400EB1022600E000263243D0F808652F
:100CE0000E400EB1042600E000263243D0F818650D
:100CF0000E400EB1082600E000263243D0F83C65D5
:100D00000E400EB1102600E000263243D0F8C46F2A
:100D10004F00FE4006F0030642EA46122260D0F879
:100D20000C650E400EB1012600E000263346D0F8D7
:100D300010650E400EB1022600E000263343D0F8C5
:100D400014650E400EB1042600E000263343D0F8AF
:100D50001C650E400EB1082600E000263343D0F893
:100D600040650E404EB1D0F844650E4016B14FF4C8
:100D7000007601E04FF4807633432B60F0BDD0F86D
:100D800010240A43C0F810247047D0F810248A4376
:100D9000C0F810247047024611B1D2F81804704709
:100DA000D2F81404FBE7C0F81C14704770B5044671
:100DB0000D462046FFF728FE06462946304600F03D
:100DC00023FA304600F07CFA70BD70B50446204628
:100DD000FFF71AFE0546284600F0AEFA284600F056
:100DE0002DFA70BD2DE9F04107460C4615463846F0
:100DF000FFF70AFE06463019294600F005FA3019B9
:100E000000F05EFABDE8F0810428000000E00F4029
:100E10000000FF7000000A10C428000070B50646EC
:100E20000C463046FFF7F0FD0546281900F084FA1D
:100E3000281900F003FA70BD0246002000EB810083
:100E400010587047002303EB8103C250704730B540
:100E500004460D46002229462046FFF7F1FD0023F7
:100E6000012229462046FFF778FE30BD30B5044602
:100E70000D46022229462046FFF7E2FD082366229E
:100E800029462046FFF769FE30BD30B504460D46C1
:100E9000002229462046FFF7D3FD002301222946E0
:100EA0002046FFF75AFE30BD30B504460D460222FB
:100EB00029462046FFF7C4FD082301222946204683
:100EC000FFF74BFE30BD30B504460D4602222946E1
:100ED0002046FFF7B5FD0823012229462046FFF7EB
:100EE0003CFE30BD30B504460D4602222946204660
:100EF000FFF7A6FD0823662229462046FFF72DFEB0
:100F000030BD30B504460D46022229462046FFF783
:100F100097FD0823662229462046FFF71EFE30BDB6
:100F200030B504460D46022229462046FFF788FDCB
:100F30000823662229462046FFF70FFE30BD30B554
:100F400004460D46002229462046FFF779FD082376
:100F5000012229462046FFF700FE30BD30B5044689
:100F60000D460823012229462046FFF7F6FD0122FF
:100F700029462046FFF764FD30BD30B504460D46D6
:100F80000923012229462046FFF7E7FD01222946D1
:100F90002046FFF755FD30BD30B504460D46022210
:100FA00029462046FFF74CFD08230122294620460A
:100FB000FFF7D3FD30BD30B504460D460222294669
:100FC0002046FFF73DFD0923012229462046FFF771
:100FD000C4FD30BD30B504460D46022229462046E8
:100FE000FFF72EFD0823012229462046FFF7B5FD15
:100FF00030BD30B504460D46022229462046FFF793
:101000001FFD0823662229462046FFF7A6FD30BDB6
:1010100030B504460D46022229462046FFF710FD52
:101020000823012229462046FFF797FD30BD30B541
:1010300004460D46022229462046FFF701FD0823FB
:10104000012229462046FFF788FD30BD30B5044611
:101050000D46022229462046FFF7F2FC0A23012210
:1010600029462046FFF779FD30BD30B504460D46D0
:10107000022229462046FFF7E3FC082301222946E5
:101080002046FFF76AFD30BD30B504460D4602220A
:1010900029462046FFF7D4FC082301222946204692
:1010A000FFF75BFD30BD30B504460D4602222946F0
:1010B0002046FFF7C5FC0823012229462046FFF7FA
:1010C0004CFD30BD30B504460D460222294620466F
:1010D000FFF7B6FC0823012229462046FFF73DFD15
:1010E00030BD30B504460D46002229462046FFF7A4
:1010F000A7FC0023012229462046FFF72EFD30BD24
:1011000030B504460D46022229462046FFF798FCDA
:101110000823012229462046FFF71FFD30BD30B5C8
:1011200004460D46002229462046FFF789FC4FF46D
:101130000273012229462046FFF70FFD30BD30B56E
:1011400004460D46002229462046FFF779FC4FF45D
:101150008473012229462046FFF7FFFC30BD01467B
:10116000D1F84805704710B50146C1F307401B4B45
:10117000DB6E01248440234033B1012303EB4003A1
:10118000174C54F8230003E04300154C54F8230097
:10119000C1F30722D0F82C350F249440A34301F06B
:1011A0000F0494402343C0F82C3510BDD0F83425EB
:1011B0000A43C0F834257047D0F834258A43C0F874
:1011C00034257047D0F830250A43C0F830257047E1
:1011D000D0F830258A43C0F83025704700E00F4032
:1011E0009C29000000BFFEE710B5FFF7B4F808B176
:1011F000012010BD0020FCE710B5FFF7A5F808B1ED
:10120000012010BD0020FCE730B50246B64C246832
:10121000B64DAC420ED0B44C2368002005E053F824
:101220002040B24D45F82040401C9B28F7D3AF4CDE
:10123000AD4D2C60AD4C44F8221030BDAC49AB4AEA
:1012400042F820107047AB4951F82010AA4A1143C8
:10125000A54A121D11607047A34A121D126802F4BC
:10126000E061002006E0A34A52F820208A4200D123
:1012700002E0401C0828F6D300BF704710B50A46AC
:1012800083089E4C54F8233019688307DC0EFF2333
:10129000A34099438307DB0E02FA03F31943830843
:1012A000964C54F82330196010BD01468808934AC3
:1012B00052F8200000688A07D20ED040C0B27047B2
:1012C000042808D188491C31096841F48031864AD4
:1012D0001C3211602FE0052808D183491C310968B0
:1012E00041F40031804A1C32116024E0062808D104
:1012F0007D491C31096841F480217B4A1C32116010
:1013000019E00F2808D14FF0E021096941F00201EE
:101310004FF0E02211610EE010280CD3A0F1100173
:1013200001F01F0201219140A0F110025209744BFB
:1013300053F8222011607047042808D16A491C31F3
:10134000096821F48031684A1C3211602FE00528B9
:1013500008D165491C31096821F40031624A1C3208
:10136000116024E0062808D15F491C31096821F486
:1013700080215D4A1C32116019E00F2808D14FF01E
:10138000E021096921F002014FF0E02211610EE035
:1013900010280CD3A0F1100101F01F02012191408F
:1013A000A0F110025209574B53F8222011607047E8
:1013B00010B501460020042905D14B4A1C321268A1
:1013C00002F4803028E0052905D1474A1C32126812
:1013D00002F4003020E0062905D1434A1C3212688D
:1013E00002F4802018E00F2905D14FF0E0221269A5
:1013F00002F0020010E010290ED3A1F110025209F0
:101400003F4B53F822201268A1F1100303F01F0490
:101410000123A34002EA030010BD022808D132498B
:10142000091F096841F000412F4A121F116024E092
:101430000E2808D12C49091F096841F080512A4A19
:10144000121F116019E00F2808D12749091F0968E8
:1014500041F08061244A121F11600EE010280CD365
:10146000A0F1100101F01F0201219140A0F1100232
:101470005209254B53F82220116070470E2808D1DD
:101480001949091F096841F00061174A121F1160CC
:1014900019E00F2808D11449091F096841F00071AB
:1014A000114A121F11600EE010280CD3A0F1100198
:1014B00001F01F0201219140A0F110025209134BCB
:1014C00053F822201160704710B504462046FEF7FD
:1014D00048FF10BD10B5FEF747FF10BDA0F1100189
:1014E0000B4A11607047000008ED00E00004002086
:1014F000E51100002C2A00000000FA054C2A00002B
:10150000E82A0000FC2A0000102B0000242B000019
:1015100000EF00E0024600210AE0F74850F83100F1
:10152000904204D3F44800EBC10040687047491C66
:101530000629F2D30020F9E7F0B50146DFF8BCC375
:10154000DCF860C1CCF38923DFF8B0C3DCF860C1FC
:10155000CCF30905DFF8A4C3DCF864C1CCF3042C98
:101560000CF10106DFF894C3DCF864C10CF01F0C29
:101570000CF10107B1FBF7F15A09A3EB421401FB8F
:1015800005F001FB02FC00EB5C1001FB04FC00EB2E
:101590009C20B0FBF6F0F0BDD8483C380068401CF9
:1015A00000027047D5480068D5490840D5498842AF
:1015B00006D1D24880680004400900F500607047F9
:1015C000CE484038006880B2401CC002F7E7CB48E4
:1015D0000068CB490840CC49884209D1C748403807
:1015E0000068C0F302400A30012101FA00F07047A0
:1015F0004FF48060FBE70146C1F30720C34A104463
:1016000000F0704040F00070C1F30722BF4B1A4455
:10161000C2F3130240EA4210CAB240EA82000068F4
:1016200008B1012070470020FCE70146C1F3072004
:10163000B74A104400F0704040F00070C1F3072238
:10164000B34B1A44C2F3130240EA4210CAB240EA52
:101650008200006808B1012070470020FCE710B547
:101660000121C0F30722AB4B1A4402F0704242F052
:101670000072C0F30723A74C2344C3F3130342EAC9
:101680004312C3B242EA8302116010BD10B50021BB
:10169000C0F307229F4B1A4402F0704242F00072DE
:1016A000C0F307239B4C2344C3F3130342EA4312C2
:1016B000C3B242EA8302116010BD18B50121C0F324
:1016C0000722954B1A4402F0704242F00072C0F3B8
:1016D0000723914C2344C3F3130342EA4312C3B2DA
:1016E00042EA830211600021009102E00099491C46
:1016F000009100991029F9D30021C0F30722864BED
:101700001A4402F0704242F00072C0F30723824C88
:101710002344C3F3130342EA4312C3B242EA8302EF
:10172000116018BD10B50121C0F307227B4B1A448C
:1017300002F0704242F00072C0F30723774C23445A
:10174000C3F3130342EA4312C3B242EA83021160B5
:1017500010BD10B50021C0F30722704B1A4402F0EF
:10176000704242F00072C0F307236C4C2344C3F371
:10177000130342EA4312C3B242EA8302116010BD6E
:1017800010B50121C0F30722654B1A4402F07042E4
:1017900042F00072C0F30723614C2344C3F31303E8
:1017A00042EA4312C3B242EA8302116010BD10B58F
:1017B0000021C0F307225A4B1A4402F0704242F053
:1017C0000072C0F30723564C2344C3F3130342EAC9
:1017D0004312C3B242EA8302116010BD10B5012169
:1017E000C0F307224F4B1A4402F0704242F00072DD
:1017F000C0F307234B4C2344C3F3130342EA4312C1
:10180000C3B242EA8302116010BD10B50021C0F3DB
:101810000722444B1A4402F0704242F00072C0F3B7
:101820000723404C2344C3F3130342EA4312C3B2D9
:1018300042EA8302116010BD30490968304A114004
:10184000304A91420ED130B12C49096E41F000610D
:101850002A4A116618E02949096E21F00061274AD9
:10186000116611E040B12549B031096841F00051DD
:10187000224AC2F8B01007E02049B031096821F0CF
:1018800000511E4AC2F8B010704710B504462146F8
:101890002C20FFF7B9FC2C20FFF712FD10BD10B56E
:1018A0002C20FFF749FD2C20FFF7C8FC10BD134981
:1018B000496D0143114A516570471049496D814393
:1018C0000E4A516570470D4988657047014611B150
:1018D0000A48806D70470948006DFBE712490860AF
:1018E00070471148006870470F4908310860704719
:1018F0000D48083000687047542D000000E00F408C
:101900000000FF700000051000000A1000E30F4007
:1019100000EA0F4000E90F4000E50F4000E60F40ED
:1019200000E70F4000E80F40B4E10F40FE490860B7
:101930007047FD49091D08607047FC48FC49086074
:1019400000BFFEE710B5FEF70AFD10BD10B5F84860
:10195000001D006840F00400F549091D0860FEF70D
:10196000FEFCF348001D006820F00400F049091D4A
:10197000086010BDEF48C06D7047EE49C96D8143E6
:10198000EC4AD1657047EB49C86770470146EA48A1
:10199000084050B101F00040E34A383A1060E64890
:1019A00081380840E34AC2F85001DF483838016006
:1019B00001F4007088B100BFDB483438006800F4DF
:1019C00040700028F8D0D8483438006800F44070DF
:1019D000B0F5807F01D0002070470120FCE7D2499C
:1019E000503108607047D0485030006870472DE98A
:1019F000FE4F05468A46CF480068D0490840D04986
:101A0000884202D10020BDE8FE8FC5F3841705F09F
:101A10003800102805D1DFF82C93002600BF1527C9
:101A200048E005F03800302804D147F230594FF42F
:101A300000163FE005F03800382804D14FF4004983
:101A40004FF4800636E005F0380078BB1A2F01DC31
:101A5000092F01DA0020D6E7BB4850F827904FF451
:101A6000401646F04076B348C06F20F01C0001904D
:101A7000072F03DB019840F010000190AD49019859
:101A8000C8674FF40020009005E00098401E0090C9
:101A9000009800B905E0A748006D00F480700028A8
:101AA000F3D000BF009828B90020ACE7FFE74FF063
:101AB0000009002605F46050002874D105F03800B4
:101AC00028B105F03800102801D000209BE7C5F3AD
:101AD000026002909D48FFF71DFD9649C0310860E5
:101AE0009448D0F8B0009A4900EA010444F0004458
:101AF0009048B0300460093F9649029851F82000A0
:101B00005044401EB0FBFAF88A48D0F8B000304389
:101B10008849B0310860029800EBC00000EB40003B
:101B20008D4901EBC00007EB470100EB81004068E5
:101B30008049C1F864017C4824380168A8F101009B
:101B400041EA00207B49C1F86401029800EBC00023
:101B500000EB4000804901EBC00007EB470150F863
:101B6000210071492839096801F4000108436E49D0
:101B7000283908604846FFF7DFFC4FEA500A504614
:101B8000FFF7C8FC6B49C1F8C0000846D0F86001F7
:101B900000F4000040B16748B030006840F0804079
:101BA000C1F8B00008E02BE05F482838006840F436
:101BB00000006049C1F860014FF4004B08E05A484A
:101BC0002038006800F0010000B104E0ABF1010B27
:101BD000BBF1000FF3DC00BFBBF1000F0DD0554887
:101BE000B030046846F0010040F08050044344F0F7
:101BF00000445048C0F8B0403CE04FF0000A39E0E3
:101C00005048FFF787FC4B49C03108604948D0F87D
:101C1000600120F400004749C1F860010846D0F88F
:101C2000B0404E48044044F000444248B0300460A4
:101C3000BAF1000F02D14FF000080AE0B9FBFAF840
:101C4000B8F1000F01D0A8F1010808F10100B9FBBB
:101C5000F0FA5046FFF75EFC3649C031086035485F
:101C6000D0F8B04046EA8820044344F000443148AC
:101C7000B03004602F48B030006820F470002D4967
:101C8000C1F8B0005046BEE62DE9F04106462948AD
:101C9000046E056F44F4006424F4800445F4006588
:101CA0000466056704F00100D8B106F00100C0B970
:101CB00066F0010004404FF480701E4988650846B4
:101CC00004664FF4002702E07F1E07B905E01948BB
:101CD000006D00F480700028F6D000BF0FB9BDE899
:101CE000F08124F4FE6406F4FE6004431C480540C1
:101CF0001B49A13106EA0100054306F0080045EA48
:101D0000C0050C480466056724F4005406F400502E
:101D1000044325F4005506F40050054340200549CE
:101D2000886505F000401DE088E10F400400FA05D9
:101D30000CED00E000E00F40000100800000FF70AB
:101D4000000005100024F400382B000040787D01CD
:101D500000FC0FE0842D0000A42B0000FF0300EF27
:101D60008FFFFF7F18B108460567046602E0D6487A
:101D700004660567D5480440C14306EA01000443F0
:101D800025F0FC5506F0FC50054306F0804040B1BC
:101D900044F4800425F48005CD4906EA010005439A
:101DA00001E025F0804506F4006080B94FF400475B
:101DB00006E0C848006800F0010000B102E07F1EA4
:101DC000002FF6D100BF24F4006425F40065BE485E
:101DD000046605671020FEF7CBFA00BF7FE7F0B579
:101DE000B948036E026F02F0004010B102F07000BB
:101DF00001E003F03000202811D003DC38B11028B6
:101E000015D10AE030280CD0702810D10CE0B2486F
:101E1000C3F3841750F827100BE0B04909E0B0492C
:101E200007E047F2305104E04FF4004101E00020A8
:101E3000F0BD00BF4FF0FF3402F0004010B102F4DB
:101E4000006028B102F0004098BB03F4006080BB42
:101E5000A048083805689C48D0F8646106F01F0067
:101E6000401CC6F304277F1C10FB07F04000B1FBA9
:101E7000F0F1C5F309004843C5F389274F4300EB50
:101E8000972143F480039048006900F47040B0F556
:101E9000804F13D006DCB0F5005F0BD0B0F5405F8B
:101EA00012D109E0B0F5E04F0AD0B0F5104F0BD1D8
:101EB00008E00BE08B4C08E08B4C06E08B4C04E018
:101EC0008B4C02E08B4C00E000BF00BF03F48000AD
:101ED00018B302F00040D8B102F0804090B102F097
:101EE000004010B102F4006028B102F0004048B98F
:101EF00003F4006030B94F00C2F38650401CB7FBBA
:101F0000F0F10AE0C2F3C550401CB1FBF0F104E06F
:101F1000C3F3C350401CB1FBF0F18C4200D2214608
:101F2000084685E76B4924390860704710B50246BA
:101F3000654B1B68704C2340704CA34208D121F0C4
:101F4000FC54531E44EAC353624C243C236023E0F8
:101F5000501E01F0700333B1102B0ED0302B05D082
:101F6000702B09D105E040F4401007E040F4001068
:101F700004E040F4800001E000BF00BF00BF01F0BA
:101F800002030BB140F0004001F080430BB140F080
:101F90008040504B243B186010BD4B49096E21F422
:101FA000F0110143484A116670474748006E00F43B
:101FB000801008B9002070474348006E00F4F0100C
:101FC000F9E74149C96E00F00F0301229A4011431D
:101FD0003D4AD16670473C49C96E00F00F030122AB
:101FE0009A409143384AD16670473748006F20F4D1
:101FF00080403549086770473348006F40F480409F
:102000003149086770473049886370472E48006E31
:1020100070472D49096E01432B4A116670472DE91F
:10202000F04F054628480068DFF8CCE000EA0E00D3
:10203000DFF8C8E0704503D100200860BDE8F08FEC
:102040002148B030076807F08050B0F1805F02D0BF
:1020500000200860F2E7C5F384161F4850F82640B8
:102060001C48083802681848D0F86431C2F3090CDB
:10207000C2F3892803F01F09C3F3042A04FB0CF000
:1020800004FB08FE00EB9E2B09F101000AF1010E92
:1020900010FB0EF0BBFBF0FBC1F800B00120CDE758
:1020A0000948406E70470849496E8143064A5166A7
:1020B00070474A1ED2B20243064B203B1A6070475B
:1020C000044930390860704700E00F40FEFF3FF8D8
:1020D0000000404068E10F40382B00000024F4006D
:1020E00000093D0000B4C40480F0FA02005A620204
:1020F00040787D01002D31010000FF7000000510C7
:1021000030B50246C74B0824C7480068C74D284071
:10211000C74DA84201D1C74B00BF002108E053F8CA
:102120003100904203D103EBC100406830BD491C2F
:10213000A142F4D30020F9E7C26A22F086020A43E2
:10214000C26270470146C86A00F08600704741EAE3
:1021500002034363704710B5436B03F007040C6040
:1021600003F03804146010BDC16A41F01001C1626F
:10217000016B40F2013211430163704700BF816976
:1021800001F008010029FAD1C16A21F01001C162F1
:10219000016B40F20132914301637047F0B5044690
:1021A0000E4615461F462046FFF7E8FFB6EB051F13
:1021B00005D2206B40F0200020636D0803E0206B07
:1021C00020F020002063F000B0FBF5F0401C430835
:1021D0009809606203F03F00A062E7620020A061FE
:1021E0002046FFF7C1FFF0BDF0B5446A856A8E0056
:1021F000402707FB0457B6FBF7F61660066B06F0A0
:10220000200616B1166876001660C66A06F0EE065D
:102210001E60F0BDC16A41F01001C1627047C16A21
:1022200021F01001C162704721B1026B42F0060239
:10223000026303E0026B42F0020202637047016B2B
:1022400021F0060101637047C16A21F0E60141F007
:102250006E01C162026B42F0080202637047016BBB
:1022600021F0080101637047026B01F440631A43D7
:1022700002637047026B01F440639A430263704744
:102280000146086B00F4406070470146886940F2DF
:10229000071210407047026B22F440420A43026367
:1022A00070470146086B00F440407047026B22F013
:1022B00010020A43026370470146086B00F01000E9
:1022C000704701468869012222EA101070470146D2
:1022D0008869012222EA501070470146886900F09F
:1022E000100008B9086870474FF0FF30FBE701465F
:1022F00000BF886900F010000028FAD10868704714
:102300000246906900F0200010B91160012070476A
:102310000020FCE700BF826902F02002002AFAD107
:102320000160704719B1C26A42F0010202E0C26A5C
:1023300022F00102C262704701468869C0F3C00002
:10234000704770B504460D462046FFF7D9FE064695
:1023500029463046FEF758FF3046FEF7B1FF70BD04
:1023600070B504462046FFF7CBFE05462846FEF72B
:10237000E3FF2846FEF762FF70BD826B0A4382636B
:102380007047826B8A4382637047024609B1106CC2
:102390007047D06BFCE741647047826C0A438264EB
:1023A0007047826C8A43826470470146486800F037
:1023B0000F007047002141607047C0F8C81F704788
:1023C0000146D1F8C80F7047D0F8A41041F400417D
:1023D000C0F8A4107047D0F8A41021F40041C0F850
:1023E000A4107047C0F8A410C0F8A82070470A468F
:1023F00000BF836903F08803802BFAD1C16A21F002
:10240000040343F08203C362026000BF836903F0E8
:102410008803802BFAD1C1627047016B41F08001C3
:10242000016370478C2D000000E00F400000FF703A
:1024300000000A10CC2D00000120C74948607047F9
:102440000020C54948607047C348C06C70470120F0
:10245000C149C864704700F01F0201219140BE4A83
:102460009162704700F01F0201219140BA4AD16287
:1024700070470146B848806A01F01F0301229A4064
:10248000104008B1012070470020FCE7B249886085
:102490007047B14880687047AF48C068704700F027
:1024A0001F0201219140AC4A5161704700F01F00AA
:1024B00001F001021AB101228240A74B9A6101F09A
:1024C00002021AB101228240A34B1A6301F00402F6
:1024D0001AB101228240A04B9A6301F008021AB19E
:1024E000012282409C4B1A62704700F01F0001F0ED
:1024F00001021AB101228240974BDA6101F0020217
:102500001AB101228240944B5A6301F004021AB1BD
:1025100001228240904BDA6301F008021AB10122D5
:1025200082408D4B5A6270470146002001F01F0126
:10253000894A926901238B401A400AB140F0010098
:10254000854A126B01238B401A400AB140F0020009
:10255000814A936B01228A4013400BB140F0040082
:102560007D4A136A01228A4013400BB140F00800F3
:10257000704710B500F03F00774B9A6802EB0013EC
:102580009B68764C23400B4302EB0014A36010BD04
:102590002DE9F04316461F46079D00F03F00DFF887
:1025A000B881D8F8083003EB0018D8F8088043F653
:1025B000F77928EA090400F02008B8F1000F05D0E7
:1025C000042901D0062901D141F00101A5F101083A
:1025D00041EA081848EA040404F04062B2F1406F8E
:1025E00006D0920E05FA02FC06EB0C08A8F10106D3
:1025F00003EB0018C8F8006004F04042B2F1404F0D
:1026000011D0042901D0062906D140F0200803EB9F
:10261000081808F10C0706E0920F05FA02FC07EB18
:102620000C08A8F1010703EB0018C8F8047003EBCD
:102630000018C8F80840BDE8F083F0B5144600F073
:102640001F00454EB26825464E1E05EB06160C3699
:1026500002EB00173E6040F0200602EB06160C3637
:1026600002EB00177E600126C6EB81063C4F47EA6D
:1026700006160BB1062700E004273E4302EB0017C5
:10268000BE6001268640344F7E63F0BD10B5014622
:1026900001F03F013048836803EB0110806843F686
:1026A000F77400EA04020AB9002010BD1009401CAA
:1026B000FBE7014601F03F01274B9A6802EB01134B
:1026C0009B6803F0070020F00103042B03D020F0E7
:1026D0000103062B01D120F00100704770B50446BC
:1026E0000D4629462046FEF78FFD2046FEF7E8FD01
:1026F00070BD10B504462046FEF71EFE2046FEF7CC
:102700009DFD10BD17480068704716490860704766
:1027100030B5C3B2000CDC08124D0C3505EB84015A
:102720005C07E20E0C680F259540AC4300FA02F5F9
:102730002C430C6030BD0B49091F09680143094A4D
:10274000121F116070470749091F09688143054A34
:10275000121F11607047000000F00F40F73FFC00AF
:10276000008000AA04F50F4002480349014A034BC8
:1027700070470000E81F0020E8200020E81F00202C
:10278000704770477047754600F02CF8AE4605005C
:102790006946534620F00700854618B020B5FFF77C
:1027A000E3FFBDE820404FF000064FF000074FF078
:1027B00000084FF0000B21F00701AC46ACE8C0095F
:1027C000ACE8C009ACE8C009ACE8C0098D46704768
:1027D00010B50446AFF300802046BDE81040FDF779
:1027E000ACBD000000487047841F0020014918203C
:1027F000ABBEFEE72600020070474FF04070E1EEEE
:10280000100A7047004000401000000000800540A2
:102810001000000000500040110000000090054032
:1028200011000000006000401200000000A0054000
:1028300012000000007000401300000000B00540CE
:1028400013000000004002401400000000C00540DA
:1028500014000000005002402E00000000D005408F
:102860002E000000006002402F00000000E0054044
:102870002F000000007002403000000000F0054012
:102880003000000000D00340460000000000064079
:1028900046000000001006404700000000200640EF
:1028A00048000000003006407F0000000040064065
:1028B00080000000005006408400000000600640D8
:1028C0008C00000000400040100000000080054027
:1028D0001000000000500040110000000090054072
:1028E00011000000006000401200000000A0054040
:1028F00012000000007000401300000000B005400E
:1029000013000000004002401400000000C0054019
:1029100014000000005002402E00000000D00540CE
:102920002E000000006002402F00000000E0054083
:102930002F000000007002403000000000F0054051
:102940003000000000D003404300000000000640BB
:102950004300000000100640440000000020064034
:1029600045000000003006405800000000400640CE
:1029700059000000005006405C0000000060064066
:1029800064000000007006406C00000000800640FB
:102990006D000000009006407F00000000400040F5
:1029A000008005400050004000900540006000405D
:1029B00000A005400070004000B00540004002400B
:1029C00000C005400050024000D0054000600240B9
:1029D00000E005400070024000F0054000D00340D8
:1029E000000006400010064000100640002006408F
:1029F00000200640003006400030064000400640FF
:102A0000004006400050064000500640006006406E
:102A100000600640007006400070064000800640DE
:102A2000008006400090064000900640000700002D
:102A30000006000000050000000400000003000084
:102A40000002000000010000000000000000000083
:102A500018ED00E01CED00E020ED00E000E400E0F7
:102A600004E400E008E400E00CE400E010E400E02E
:102A700014E400E018E400E01CE400E020E400E0DE
:102A800024E400E028E400E02CE400E030E400E08E
:102A900034E400E038E400E03CE400E040E400E03E
:102AA00044E400E048E400E04CE400E050E400E0EE
:102AB00054E400E058E400E05CE400E060E400E09E
:102AC00064E400E068E400E06CE400E070E400E04E
:102AD00074E400E078E400E07CE400E080E400E0FE
:102AE00084E400E088E400E000E100E004E100E0CC
:102AF00008E100E00CE100E010E100E080E100E02E
:102B000084E100E088E100E08CE100E090E100E099
:102B100000E200E004E200E008E200E00CE200E095
:102B200010E200E080E200E084E200E088E200E001
:102B30008CE200E090E200E040420F0000201C0028
:102B400080841E0000802500999E360000403800D9
:102B500000093D0000803E0000004B00404B4C004F
:102B600000204E00808D5B0000C05D000080700082
:102B700000127A0000007D0080969800001BB700CC
:102B80000080BB00C0E8CE00647ADA000024F400C4
:102B90000000FA0080A81201002D310100366E01FC
:102BA00040787D01400000000000000000010000AE
:102BB0003E0008000000000000010000A00000002E
:102BC0000200000000010000345401000000000079
:102BD000000100002B700600000000000001000052
:102BE0002800000000000000000100002700010094
:102BF00000000000000100002000000000000000B4
:102C00000001000050000000020000000001000070
:102C10001AAC000000000000000100001794090039
:102C200000000000000100001698050000000000F0
:102C3000000100001400000000000000000100007E
:102C4000138008000000000000010000A000000048
:102C5000080000000001000010000000000000005B
:102C60000001000028000000020000000001000038
:102C700040000000040000000001000060000000AF
:102C800000000000000100005D000C0000000000DA
:102C900000010000500000000000000000010000E2
:102CA0004E000200000000000001000041AC0100E5
:102CB00000000000000100003C00000000000000D7
:102CC000000100003A80090000000000000100003F
:102CD000300000000000000000010000280000009B
:102CE00000000000000100002700010000000000BB
:102CF0000001000023600600000000000001000049
:102D00002160080000000000000100001E0000001B
:102D100000000000000100001DC0040000000000D1
:102D2000000100005000000002000000000100004F
:102D30001800000000000000000100001400000066
:102D4000000000000001000060000000040000001E
:102D5000000100000024F40030003000005A62023C
:102D60009100910000879303D200D20000B4C40404
:102D70001301130100E1F50554015401000E27076A
:102D80009501950100688909001C4E0E00C00040A5
:102D90001500000000D000401600000000E00040D8
:102DA0003100000000F000404B0000000000014036
:102DB0004C000000001001404D00000000200140C8
:102DC0004E000000003001404F00000000C00040F5
:102DD0001500000000D000401600000000E0004098
:102DE0003100000000F000404800000000000140F9
:102DF00049000000001001404A000000002001408E
:102E00004B000000003001404C0000002C2E000060
:102E1000000000206C060000C4020000A02E00008C
:102E20006C0600207C1A0000000300000064FF0D07
:102E3000C1110009030CD01240173F185019031A92
:102E4000783200A00A63E0ACFF650C6600670029D9
:102E5000142C1E2A007E0C7F16802A814E826183EC
:102E60006F847B8586868E879788A489AF8AC58B79
:102E7000D78CE88D204A00491347084B144C17465D
:102E80000522992303A6049B009C4BAB069E119F31
:102E9000023101FF01FF01FF01FF01FF01160000E8
:04000005000002896C
:00000001FF
